{
  "contractName": "PrincetonCoin",
  "abi": [
    {
      "inputs": [],
      "stateMutability": "nonpayable",
      "type": "constructor"
    },
    {
      "anonymous": false,
      "inputs": [
        {
          "indexed": true,
          "internalType": "address",
          "name": "_from",
          "type": "address"
        },
        {
          "indexed": true,
          "internalType": "address",
          "name": "_to",
          "type": "address"
        },
        {
          "indexed": false,
          "internalType": "uint256",
          "name": "_value",
          "type": "uint256"
        }
      ],
      "name": "Approval",
      "type": "event"
    },
    {
      "anonymous": false,
      "inputs": [
        {
          "indexed": true,
          "internalType": "address",
          "name": "_to",
          "type": "address"
        },
        {
          "indexed": false,
          "internalType": "uint256",
          "name": "_value",
          "type": "uint256"
        }
      ],
      "name": "Mint",
      "type": "event"
    },
    {
      "anonymous": false,
      "inputs": [
        {
          "indexed": true,
          "internalType": "address",
          "name": "_owner",
          "type": "address"
        },
        {
          "indexed": true,
          "internalType": "address",
          "name": "_spender",
          "type": "address"
        },
        {
          "indexed": false,
          "internalType": "uint256",
          "name": "_value",
          "type": "uint256"
        }
      ],
      "name": "Transfer",
      "type": "event"
    },
    {
      "inputs": [],
      "name": "_totalSupply",
      "outputs": [
        {
          "internalType": "uint256",
          "name": "",
          "type": "uint256"
        }
      ],
      "stateMutability": "view",
      "type": "function",
      "constant": true
    },
    {
      "inputs": [],
      "name": "decimals",
      "outputs": [
        {
          "internalType": "uint8",
          "name": "",
          "type": "uint8"
        }
      ],
      "stateMutability": "view",
      "type": "function",
      "constant": true
    },
    {
      "inputs": [],
      "name": "minter",
      "outputs": [
        {
          "internalType": "address",
          "name": "",
          "type": "address"
        }
      ],
      "stateMutability": "view",
      "type": "function",
      "constant": true
    },
    {
      "inputs": [],
      "name": "name",
      "outputs": [
        {
          "internalType": "string",
          "name": "",
          "type": "string"
        }
      ],
      "stateMutability": "view",
      "type": "function",
      "constant": true
    },
    {
      "inputs": [],
      "name": "symbol",
      "outputs": [
        {
          "internalType": "string",
          "name": "",
          "type": "string"
        }
      ],
      "stateMutability": "view",
      "type": "function",
      "constant": true
    },
    {
      "inputs": [],
      "name": "totalSupply",
      "outputs": [
        {
          "internalType": "uint256",
          "name": "",
          "type": "uint256"
        }
      ],
      "stateMutability": "view",
      "type": "function",
      "constant": true
    },
    {
      "inputs": [
        {
          "internalType": "address",
          "name": "tokenOwner",
          "type": "address"
        }
      ],
      "name": "balanceOf",
      "outputs": [
        {
          "internalType": "uint256",
          "name": "balance",
          "type": "uint256"
        }
      ],
      "stateMutability": "view",
      "type": "function",
      "constant": true
    },
    {
      "inputs": [
        {
          "internalType": "address",
          "name": "to",
          "type": "address"
        },
        {
          "internalType": "uint256",
          "name": "tokens",
          "type": "uint256"
        }
      ],
      "name": "transfer",
      "outputs": [
        {
          "internalType": "bool",
          "name": "success",
          "type": "bool"
        }
      ],
      "stateMutability": "nonpayable",
      "type": "function"
    },
    {
      "inputs": [
        {
          "internalType": "address",
          "name": "from",
          "type": "address"
        },
        {
          "internalType": "address",
          "name": "to",
          "type": "address"
        },
        {
          "internalType": "uint256",
          "name": "tokens",
          "type": "uint256"
        }
      ],
      "name": "transferFrom",
      "outputs": [
        {
          "internalType": "bool",
          "name": "success",
          "type": "bool"
        }
      ],
      "stateMutability": "nonpayable",
      "type": "function"
    },
    {
      "inputs": [
        {
          "internalType": "address",
          "name": "spender",
          "type": "address"
        },
        {
          "internalType": "uint256",
          "name": "tokens",
          "type": "uint256"
        }
      ],
      "name": "approve",
      "outputs": [
        {
          "internalType": "bool",
          "name": "success",
          "type": "bool"
        }
      ],
      "stateMutability": "nonpayable",
      "type": "function"
    },
    {
      "inputs": [
        {
          "internalType": "address",
          "name": "tokenOwner",
          "type": "address"
        },
        {
          "internalType": "address",
          "name": "spender",
          "type": "address"
        }
      ],
      "name": "allowance",
      "outputs": [
        {
          "internalType": "uint256",
          "name": "remaining",
          "type": "uint256"
        }
      ],
      "stateMutability": "view",
      "type": "function",
      "constant": true
    },
    {
      "inputs": [
        {
          "internalType": "address",
          "name": "to",
          "type": "address"
        },
        {
          "internalType": "uint256",
          "name": "tokens",
          "type": "uint256"
        }
      ],
      "name": "mint",
      "outputs": [
        {
          "internalType": "bool",
          "name": "success",
          "type": "bool"
        }
      ],
      "stateMutability": "nonpayable",
      "type": "function"
    },
    {
      "inputs": [
        {
          "internalType": "address",
          "name": "account",
          "type": "address"
        }
      ],
      "name": "isMinter",
      "outputs": [
        {
          "internalType": "bool",
          "name": "result",
          "type": "bool"
        }
      ],
      "stateMutability": "view",
      "type": "function",
      "constant": true
    }
  ],
  "bytecode": "0x60806040523480156200001157600080fd5b506040518060400160405280600481526020017f50544f4e00000000000000000000000000000000000000000000000000000000815250600090805190602001906200005f929190620001ca565b506040518060400160405280600e81526020017f5072696e6365746f6e20436f696e00000000000000000000000000000000000081525060019080519060200190620000ad929190620001ca565b5060028060006101000a81548160ff021916908360ff160217905550620186a060038190555033600460006101000a81548173ffffffffffffffffffffffffffffffffffffffff021916908373ffffffffffffffffffffffffffffffffffffffff160217905550600354600560003373ffffffffffffffffffffffffffffffffffffffff1673ffffffffffffffffffffffffffffffffffffffff168152602001908152602001600020819055503373ffffffffffffffffffffffffffffffffffffffff16600073ffffffffffffffffffffffffffffffffffffffff167fddf252ad1be2c89b69c2b068fc378daa952ba7f163c4a11628f55a4df523b3ef600354604051620001bc91906200028b565b60405180910390a362000317565b828054620001d890620002b2565b90600052602060002090601f016020900481019282620001fc576000855562000248565b82601f106200021757805160ff191683800117855562000248565b8280016001018555821562000248579182015b82811115620002475782518255916020019190600101906200022a565b5b5090506200025791906200025b565b5090565b5b80821115620002765760008160009055506001016200025c565b5090565b6200028581620002a8565b82525050565b6000602082019050620002a260008301846200027a565b92915050565b6000819050919050565b60006002820490506001821680620002cb57607f821691505b60208210811415620002e257620002e1620002e8565b5b50919050565b7f4e487b7100000000000000000000000000000000000000000000000000000000600052602260045260246000fd5b61100580620003276000396000f3fe608060405234801561001057600080fd5b50600436106100cf5760003560e01c80633eaaf86b1161008c57806395d89b411161006657806395d89b411461022a578063a9059cbb14610248578063aa271e1a14610278578063dd62ed3e146102a8576100cf565b80633eaaf86b146101ac57806340c10f19146101ca57806370a08231146101fa576100cf565b806306fdde03146100d457806307546172146100f2578063095ea7b31461011057806318160ddd1461014057806323b872dd1461015e578063313ce5671461018e575b600080fd5b6100dc6102d8565b6040516100e99190610d7a565b60405180910390f35b6100fa610366565b6040516101079190610d44565b60405180910390f35b61012a60048036038101906101259190610c93565b61038c565b6040516101379190610d5f565b60405180910390f35b61014861047e565b6040516101559190610d9c565b60405180910390f35b61017860048036038101906101739190610c44565b6104d2565b6040516101859190610d5f565b60405180910390f35b610196610758565b6040516101a39190610db7565b60405180910390f35b6101b461076b565b6040516101c19190610d9c565b60405180910390f35b6101e460048036038101906101df9190610c93565b610771565b6040516101f19190610d5f565b60405180910390f35b610214600480360381019061020f9190610bdf565b610894565b6040516102219190610d9c565b60405180910390f35b6102326108dd565b60405161023f9190610d7a565b60405180910390f35b610262600480360381019061025d9190610c93565b61096b565b60405161026f9190610d5f565b60405180910390f35b610292600480360381019061028d9190610bdf565b610ad4565b60405161029f9190610d5f565b60405180910390f35b6102c260048036038101906102bd9190610c08565b610b2e565b6040516102cf9190610d9c565b60405180910390f35b600180546102e590610f00565b80601f016020809104026020016040519081016040528092919081815260200182805461031190610f00565b801561035e5780601f106103335761010080835404028352916020019161035e565b820191906000526020600020905b81548152906001019060200180831161034157829003601f168201915b505050505081565b600460009054906101000a900473ffffffffffffffffffffffffffffffffffffffff1681565b600081600660003373ffffffffffffffffffffffffffffffffffffffff1673ffffffffffffffffffffffffffffffffffffffff16815260200190815260200160002060008573ffffffffffffffffffffffffffffffffffffffff1673ffffffffffffffffffffffffffffffffffffffff168152602001908152602001600020819055508273ffffffffffffffffffffffffffffffffffffffff163373ffffffffffffffffffffffffffffffffffffffff167f8c5be1e5ebec7d5bd14f71427d1e84f3dd0314c0f7b2291e5b200ac8c7c3b9258460405161046c9190610d9c565b60405180910390a36001905092915050565b6000600560008073ffffffffffffffffffffffffffffffffffffffff1673ffffffffffffffffffffffffffffffffffffffff168152602001908152602001600020546003546104cd9190610e44565b905090565b6000600560008573ffffffffffffffffffffffffffffffffffffffff1673ffffffffffffffffffffffffffffffffffffffff1681526020019081526020016000205482111561052057600080fd5b600660008573ffffffffffffffffffffffffffffffffffffffff1673ffffffffffffffffffffffffffffffffffffffff16815260200190815260200160002060008473ffffffffffffffffffffffffffffffffffffffff1673ffffffffffffffffffffffffffffffffffffffff168152602001908152602001600020548211156105a957600080fd5b81600560008673ffffffffffffffffffffffffffffffffffffffff1673ffffffffffffffffffffffffffffffffffffffff16815260200190815260200160002060008282546105f89190610e44565b9250508190555081600660008673ffffffffffffffffffffffffffffffffffffffff1673ffffffffffffffffffffffffffffffffffffffff16815260200190815260200160002060003373ffffffffffffffffffffffffffffffffffffffff1673ffffffffffffffffffffffffffffffffffffffff168152602001908152602001600020600082825461068b9190610e44565b9250508190555081600560008573ffffffffffffffffffffffffffffffffffffffff1673ffffffffffffffffffffffffffffffffffffffff16815260200190815260200160002060008282546106e19190610dee565b925050819055508273ffffffffffffffffffffffffffffffffffffffff168473ffffffffffffffffffffffffffffffffffffffff167fddf252ad1be2c89b69c2b068fc378daa952ba7f163c4a11628f55a4df523b3ef846040516107459190610d9c565b60405180910390a3600190509392505050565b600260009054906101000a900460ff1681565b60035481565b6000600460009054906101000a900473ffffffffffffffffffffffffffffffffffffffff1673ffffffffffffffffffffffffffffffffffffffff163373ffffffffffffffffffffffffffffffffffffffff16146107cd57600080fd5b81600560008573ffffffffffffffffffffffffffffffffffffffff1673ffffffffffffffffffffffffffffffffffffffff168152602001908152602001600020600082825461081c9190610dee565b9250508190555081600360008282546108359190610dee565b925050819055508273ffffffffffffffffffffffffffffffffffffffff167f0f6798a560793a54c3bcfe86a93cde1e73087d944c0ea20544137d4121396885836040516108829190610d9c565b60405180910390a26001905092915050565b6000600560008373ffffffffffffffffffffffffffffffffffffffff1673ffffffffffffffffffffffffffffffffffffffff168152602001908152602001600020549050919050565b600080546108ea90610f00565b80601f016020809104026020016040519081016040528092919081815260200182805461091690610f00565b80156109635780601f1061093857610100808354040283529160200191610963565b820191906000526020600020905b81548152906001019060200180831161094657829003601f168201915b505050505081565b6000600560003373ffffffffffffffffffffffffffffffffffffffff1673ffffffffffffffffffffffffffffffffffffffff168152602001908152602001600020548211156109b957600080fd5b81600560003373ffffffffffffffffffffffffffffffffffffffff1673ffffffffffffffffffffffffffffffffffffffff1681526020019081526020016000206000828254610a089190610e44565b9250508190555081600560008573ffffffffffffffffffffffffffffffffffffffff1673ffffffffffffffffffffffffffffffffffffffff1681526020019081526020016000206000828254610a5e9190610dee565b925050819055508273ffffffffffffffffffffffffffffffffffffffff163373ffffffffffffffffffffffffffffffffffffffff167fddf252ad1be2c89b69c2b068fc378daa952ba7f163c4a11628f55a4df523b3ef84604051610ac29190610d9c565b60405180910390a36001905092915050565b6000600460009054906101000a900473ffffffffffffffffffffffffffffffffffffffff1673ffffffffffffffffffffffffffffffffffffffff168273ffffffffffffffffffffffffffffffffffffffff16149050919050565b6000600660008473ffffffffffffffffffffffffffffffffffffffff1673ffffffffffffffffffffffffffffffffffffffff16815260200190815260200160002060008373ffffffffffffffffffffffffffffffffffffffff1673ffffffffffffffffffffffffffffffffffffffff16815260200190815260200160002054905092915050565b600081359050610bc481610fa1565b92915050565b600081359050610bd981610fb8565b92915050565b600060208284031215610bf157600080fd5b6000610bff84828501610bb5565b91505092915050565b60008060408385031215610c1b57600080fd5b6000610c2985828601610bb5565b9250506020610c3a85828601610bb5565b9150509250929050565b600080600060608486031215610c5957600080fd5b6000610c6786828701610bb5565b9350506020610c7886828701610bb5565b9250506040610c8986828701610bca565b9150509250925092565b60008060408385031215610ca657600080fd5b6000610cb485828601610bb5565b9250506020610cc585828601610bca565b9150509250929050565b610cd881610e78565b82525050565b610ce781610e8a565b82525050565b6000610cf882610dd2565b610d028185610ddd565b9350610d12818560208601610ecd565b610d1b81610f90565b840191505092915050565b610d2f81610eb6565b82525050565b610d3e81610ec0565b82525050565b6000602082019050610d596000830184610ccf565b92915050565b6000602082019050610d746000830184610cde565b92915050565b60006020820190508181036000830152610d948184610ced565b905092915050565b6000602082019050610db16000830184610d26565b92915050565b6000602082019050610dcc6000830184610d35565b92915050565b600081519050919050565b600082825260208201905092915050565b6000610df982610eb6565b9150610e0483610eb6565b9250827fffffffffffffffffffffffffffffffffffffffffffffffffffffffffffffffff03821115610e3957610e38610f32565b5b828201905092915050565b6000610e4f82610eb6565b9150610e5a83610eb6565b925082821015610e6d57610e6c610f32565b5b828203905092915050565b6000610e8382610e96565b9050919050565b60008115159050919050565b600073ffffffffffffffffffffffffffffffffffffffff82169050919050565b6000819050919050565b600060ff82169050919050565b60005b83811015610eeb578082015181840152602081019050610ed0565b83811115610efa576000848401525b50505050565b60006002820490506001821680610f1857607f821691505b60208210811415610f2c57610f2b610f61565b5b50919050565b7f4e487b7100000000000000000000000000000000000000000000000000000000600052601160045260246000fd5b7f4e487b7100000000000000000000000000000000000000000000000000000000600052602260045260246000fd5b6000601f19601f8301169050919050565b610faa81610e78565b8114610fb557600080fd5b50565b610fc181610eb6565b8114610fcc57600080fd5b5056fea26469706673582212201f98990c4921f497051411e8416f537d50b5e726121c6bb76d1a33af13a816f764736f6c63430008000033",
  "immutableReferences": {},
  "source": "// SPDX-License-Identifier: MIT\npragma solidity ^0.8.0;\n \n// Actual token contract\ncontract PrincetonCoin {\n    string public symbol;\n    string public  name;\n    uint8 public decimals;\n    uint public _totalSupply;\n    address public minter;\n \n    mapping(address => uint) balances;\n    mapping(address => mapping(address => uint)) allowed;\n\n    event Approval(address indexed _from, address indexed _to, uint256 _value);\n    event Transfer(address indexed _owner, address indexed _spender, uint256 _value);\n    event Mint(address indexed _to, uint256 _value);\n \n    constructor() {\n        symbol = \"PTON\";\n        name = \"Princeton Coin\";\n        decimals = 2;\n        _totalSupply = 100000;\n        minter = msg.sender;\n        \n        balances[msg.sender] = _totalSupply;\n        // Note: address(0) is where coins go to be burned\n        emit Transfer(address(0), msg.sender, _totalSupply);\n    }\n \n    function totalSupply() public view returns (uint) {\n        return _totalSupply  - balances[address(0)];\n    }\n \n    function balanceOf(address tokenOwner) public view returns (uint balance) {\n        return balances[tokenOwner];\n    }\n \n    function transfer(address to, uint tokens) public returns (bool success) {\n        require(tokens <= balances[msg.sender]);\n        balances[msg.sender] -= tokens;\n        balances[to] += tokens;\n        emit Transfer(msg.sender, to, tokens);\n        return true;\n    }\n \n    function transferFrom(address from, address to, uint tokens) public returns (bool success) {\n        require(tokens <= balances[from]);\n        require(tokens <= allowed[from][to]);\n        balances[from] -= tokens;\n        allowed[from][msg.sender] -= tokens;\n        balances[to] += tokens;\n        emit Transfer(from, to, tokens);\n        return true;\n    }\n \n    function approve(address spender, uint tokens) public returns (bool success) {\n        allowed[msg.sender][spender] = tokens;\n        emit Approval(msg.sender, spender, tokens);\n        return true;\n    }\n \n    function allowance(address tokenOwner, address spender) public view returns (uint remaining) {\n        return allowed[tokenOwner][spender];\n    }\n\n    function mint(address to, uint tokens) public returns (bool success) {\n        require(msg.sender == minter);\n        balances[to] += tokens;\n        _totalSupply += tokens;\n        emit Mint(to, tokens);\n        return true;\n    }\n\n    function isMinter(address account) public view returns (bool result) {\n        return account == minter;\n    }\n}",
  "sourcePath": "/home/hollisma/Documents/pton/sing/cos495/princetaverse/blockchain/contracts/PrincetonCoin.sol",
  "compiler": {
    "name": "solc",
    "version": "0.8.0+commit.c7dfd78e.Emscripten.clang"
  },
  "schemaVersion": "3.4.5",
  "updatedAt": "2022-04-02T02:18:35.654Z",
  "networkType": "ethereum",
  "devdoc": {
    "kind": "dev",
    "methods": {},
    "version": 1
  },
  "userdoc": {
    "kind": "user",
    "methods": {},
    "version": 1
  }
}